{
  "_format": "hh-sol-artifact-1",
  "contractName": "NFT",
  "sourceName": "contracts/NFT.sol",
  "abi": [
    {
      "inputs": [
        {
          "internalType": "address",
          "name": "marketplaceAddress",
          "type": "address"
        }
      ],
      "stateMutability": "nonpayable",
      "type": "constructor"
    },
    {
      "anonymous": false,
      "inputs": [
        {
          "indexed": true,
          "internalType": "address",
          "name": "owner",
          "type": "address"
        },
        {
          "indexed": true,
          "internalType": "address",
          "name": "approved",
          "type": "address"
        },
        {
          "indexed": true,
          "internalType": "uint256",
          "name": "tokenId",
          "type": "uint256"
        }
      ],
      "name": "Approval",
      "type": "event"
    },
    {
      "anonymous": false,
      "inputs": [
        {
          "indexed": true,
          "internalType": "address",
          "name": "owner",
          "type": "address"
        },
        {
          "indexed": true,
          "internalType": "address",
          "name": "operator",
          "type": "address"
        },
        {
          "indexed": false,
          "internalType": "bool",
          "name": "approved",
          "type": "bool"
        }
      ],
      "name": "ApprovalForAll",
      "type": "event"
    },
    {
      "anonymous": false,
      "inputs": [
        {
          "indexed": true,
          "internalType": "address",
          "name": "from",
          "type": "address"
        },
        {
          "indexed": true,
          "internalType": "address",
          "name": "to",
          "type": "address"
        },
        {
          "indexed": true,
          "internalType": "uint256",
          "name": "tokenId",
          "type": "uint256"
        }
      ],
      "name": "Transfer",
      "type": "event"
    },
    {
      "inputs": [
        {
          "internalType": "address",
          "name": "to",
          "type": "address"
        },
        {
          "internalType": "uint256",
          "name": "tokenId",
          "type": "uint256"
        }
      ],
      "name": "approve",
      "outputs": [],
      "stateMutability": "nonpayable",
      "type": "function"
    },
    {
      "inputs": [
        {
          "internalType": "address",
          "name": "owner",
          "type": "address"
        }
      ],
      "name": "balanceOf",
      "outputs": [
        {
          "internalType": "uint256",
          "name": "",
          "type": "uint256"
        }
      ],
      "stateMutability": "view",
      "type": "function"
    },
    {
      "inputs": [
        {
          "internalType": "string",
          "name": "tokenURI",
          "type": "string"
        }
      ],
      "name": "createToken",
      "outputs": [
        {
          "internalType": "uint256",
          "name": "",
          "type": "uint256"
        }
      ],
      "stateMutability": "nonpayable",
      "type": "function"
    },
    {
      "inputs": [
        {
          "internalType": "uint256",
          "name": "tokenId",
          "type": "uint256"
        }
      ],
      "name": "getApproved",
      "outputs": [
        {
          "internalType": "address",
          "name": "",
          "type": "address"
        }
      ],
      "stateMutability": "view",
      "type": "function"
    },
    {
      "inputs": [
        {
          "internalType": "address",
          "name": "owner",
          "type": "address"
        },
        {
          "internalType": "address",
          "name": "operator",
          "type": "address"
        }
      ],
      "name": "isApprovedForAll",
      "outputs": [
        {
          "internalType": "bool",
          "name": "",
          "type": "bool"
        }
      ],
      "stateMutability": "view",
      "type": "function"
    },
    {
      "inputs": [],
      "name": "name",
      "outputs": [
        {
          "internalType": "string",
          "name": "",
          "type": "string"
        }
      ],
      "stateMutability": "view",
      "type": "function"
    },
    {
      "inputs": [
        {
          "internalType": "uint256",
          "name": "tokenId",
          "type": "uint256"
        }
      ],
      "name": "ownerOf",
      "outputs": [
        {
          "internalType": "address",
          "name": "",
          "type": "address"
        }
      ],
      "stateMutability": "view",
      "type": "function"
    },
    {
      "inputs": [
        {
          "internalType": "address",
          "name": "from",
          "type": "address"
        },
        {
          "internalType": "address",
          "name": "to",
          "type": "address"
        },
        {
          "internalType": "uint256",
          "name": "tokenId",
          "type": "uint256"
        }
      ],
      "name": "safeTransferFrom",
      "outputs": [],
      "stateMutability": "nonpayable",
      "type": "function"
    },
    {
      "inputs": [
        {
          "internalType": "address",
          "name": "from",
          "type": "address"
        },
        {
          "internalType": "address",
          "name": "to",
          "type": "address"
        },
        {
          "internalType": "uint256",
          "name": "tokenId",
          "type": "uint256"
        },
        {
          "internalType": "bytes",
          "name": "_data",
          "type": "bytes"
        }
      ],
      "name": "safeTransferFrom",
      "outputs": [],
      "stateMutability": "nonpayable",
      "type": "function"
    },
    {
      "inputs": [],
      "name": "setApprouve",
      "outputs": [],
      "stateMutability": "nonpayable",
      "type": "function"
    },
    {
      "inputs": [
        {
          "internalType": "address",
          "name": "operator",
          "type": "address"
        },
        {
          "internalType": "bool",
          "name": "approved",
          "type": "bool"
        }
      ],
      "name": "setApprovalForAll",
      "outputs": [],
      "stateMutability": "nonpayable",
      "type": "function"
    },
    {
      "inputs": [
        {
          "internalType": "bytes4",
          "name": "interfaceId",
          "type": "bytes4"
        }
      ],
      "name": "supportsInterface",
      "outputs": [
        {
          "internalType": "bool",
          "name": "",
          "type": "bool"
        }
      ],
      "stateMutability": "view",
      "type": "function"
    },
    {
      "inputs": [],
      "name": "symbol",
      "outputs": [
        {
          "internalType": "string",
          "name": "",
          "type": "string"
        }
      ],
      "stateMutability": "view",
      "type": "function"
    },
    {
      "inputs": [
        {
          "internalType": "uint256",
          "name": "tokenId",
          "type": "uint256"
        }
      ],
      "name": "tokenURI",
      "outputs": [
        {
          "internalType": "string",
          "name": "",
          "type": "string"
        }
      ],
      "stateMutability": "view",
      "type": "function"
    },
    {
      "inputs": [
        {
          "internalType": "address",
          "name": "from",
          "type": "address"
        },
        {
          "internalType": "address",
          "name": "to",
          "type": "address"
        },
        {
          "internalType": "uint256",
          "name": "tokenId",
          "type": "uint256"
        }
      ],
      "name": "transferFrom",
      "outputs": [],
      "stateMutability": "nonpayable",
      "type": "function"
    }
  ],
  "bytecode": "0x60806040523480156200001157600080fd5b50604051620018ef380380620018ef83398101604081905262000034916200017b565b604080518082018252601781527f546865204e46542076656e64696e67204d616368696e65000000000000000000602080830191825283518085019094526004845263544e564d60e01b9084015281519192916200009591600091620000d5565b508051620000ab906001906020840190620000d5565b5050600880546001600160a01b0319166001600160a01b03939093169290921790915550620001e8565b828054620000e390620001ab565b90600052602060002090601f01602090048101928262000107576000855562000152565b82601f106200012257805160ff191683800117855562000152565b8280016001018555821562000152579182015b828111156200015257825182559160200191906001019062000135565b506200016092915062000164565b5090565b5b8082111562000160576000815560010162000165565b6000602082840312156200018d578081fd5b81516001600160a01b0381168114620001a4578182fd5b9392505050565b600181811c90821680620001c057607f821691505b60208210811415620001e257634e487b7160e01b600052602260045260246000fd5b50919050565b6116f780620001f86000396000f3fe608060405234801561001057600080fd5b50600436106100f55760003560e01c80636352211e11610097578063b88d4fde11610066578063b88d4fde146101ff578063c87b56dd14610212578063e985e9c514610225578063ef3762971461023857600080fd5b80636352211e146101be57806370a08231146101d157806395d89b41146101e4578063a22cb465146101ec57600080fd5b8063095ea7b3116100d3578063095ea7b31461016257806323b872dd1461017757806342842e0e1461018a57806345576f941461019d57600080fd5b806301ffc9a7146100fa57806306fdde0314610122578063081812fc14610137575b600080fd5b61010d6101083660046113a9565b610240565b60405190151581526020015b60405180910390f35b61012a610292565b60405161011991906114d7565b61014a610145366004611427565b610324565b6040516001600160a01b039091168152602001610119565b610175610170366004611380565b6103b1565b005b610175610185366004611292565b6104c7565b610175610198366004611292565b6104f8565b6101b06101ab3660046113e1565b610513565b604051908152602001610119565b61014a6101cc366004611427565b61055b565b6101b06101df366004611246565b6105d2565b61012a610659565b6101756101fa366004611346565b610668565b61017561020d3660046112cd565b61072d565b61012a610220366004611427565b610765565b61010d610233366004611260565b6108dc565b61017561090a565b60006001600160e01b031982166380ac58cd60e01b148061027157506001600160e01b03198216635b5e139f60e01b145b8061028c57506301ffc9a760e01b6001600160e01b03198316145b92915050565b6060600080546102a1906115fc565b80601f01602080910402602001604051908101604052809291908181526020018280546102cd906115fc565b801561031a5780601f106102ef5761010080835404028352916020019161031a565b820191906000526020600020905b8154815290600101906020018083116102fd57829003601f168201915b5050505050905090565b600061032f8261093e565b6103955760405162461bcd60e51b815260206004820152602c60248201527f4552433732313a20617070726f76656420717565727920666f72206e6f6e657860448201526b34b9ba32b73a103a37b5b2b760a11b60648201526084015b60405180910390fd5b506000908152600460205260409020546001600160a01b031690565b60006103bc8261055b565b9050806001600160a01b0316836001600160a01b0316141561042a5760405162461bcd60e51b815260206004820152602160248201527f4552433732313a20617070726f76616c20746f2063757272656e74206f776e656044820152603960f91b606482015260840161038c565b336001600160a01b0382161480610446575061044681336108dc565b6104b85760405162461bcd60e51b815260206004820152603860248201527f4552433732313a20617070726f76652063616c6c6572206973206e6f74206f7760448201527f6e6572206e6f7220617070726f76656420666f7220616c6c0000000000000000606482015260840161038c565b6104c2838361095b565b505050565b6104d133826109c9565b6104ed5760405162461bcd60e51b815260040161038c9061153c565b6104c2838383610a8b565b6104c28383836040518060200160405280600081525061072d565b6000610523600780546001019055565b600061052e60075490565b905061053a3382610c2b565b6105448184610d5e565b60085461028c906001600160a01b03166001610668565b6000818152600260205260408120546001600160a01b03168061028c5760405162461bcd60e51b815260206004820152602960248201527f4552433732313a206f776e657220717565727920666f72206e6f6e657869737460448201526832b73a103a37b5b2b760b91b606482015260840161038c565b60006001600160a01b03821661063d5760405162461bcd60e51b815260206004820152602a60248201527f4552433732313a2062616c616e636520717565727920666f7220746865207a65604482015269726f206164647265737360b01b606482015260840161038c565b506001600160a01b031660009081526003602052604090205490565b6060600180546102a1906115fc565b6001600160a01b0382163314156106c15760405162461bcd60e51b815260206004820152601960248201527f4552433732313a20617070726f766520746f2063616c6c657200000000000000604482015260640161038c565b3360008181526005602090815260408083206001600160a01b03871680855290835292819020805460ff191686151590811790915590519081529192917f17307eab39ab6107e8899845ad3d59bd9653f200f220920489ca2b5937696c31910160405180910390a35050565b61073733836109c9565b6107535760405162461bcd60e51b815260040161038c9061153c565b61075f84848484610de9565b50505050565b60606107708261093e565b6107d65760405162461bcd60e51b815260206004820152603160248201527f45524337323155524953746f726167653a2055524920717565727920666f72206044820152703737b732bc34b9ba32b73a103a37b5b2b760791b606482015260840161038c565b600082815260066020526040812080546107ef906115fc565b80601f016020809104026020016040519081016040528092919081815260200182805461081b906115fc565b80156108685780601f1061083d57610100808354040283529160200191610868565b820191906000526020600020905b81548152906001019060200180831161084b57829003601f168201915b50505050509050600061088660408051602081019091526000815290565b9050805160001415610899575092915050565b8151156108cb5780826040516020016108b392919061146b565b60405160208183030381529060405292505050919050565b6108d484610e1c565b949350505050565b6001600160a01b03918216600090815260056020908152604080832093909416825291909152205460ff1690565b6008546109219033906001600160a01b03166108dc565b61093c5760085461093c906001600160a01b03166001610668565b565b6000908152600260205260409020546001600160a01b0316151590565b600081815260046020526040902080546001600160a01b0319166001600160a01b03841690811790915581906109908261055b565b6001600160a01b03167f8c5be1e5ebec7d5bd14f71427d1e84f3dd0314c0f7b2291e5b200ac8c7c3b92560405160405180910390a45050565b60006109d48261093e565b610a355760405162461bcd60e51b815260206004820152602c60248201527f4552433732313a206f70657261746f7220717565727920666f72206e6f6e657860448201526b34b9ba32b73a103a37b5b2b760a11b606482015260840161038c565b6000610a408361055b565b9050806001600160a01b0316846001600160a01b03161480610a7b5750836001600160a01b0316610a7084610324565b6001600160a01b0316145b806108d457506108d481856108dc565b826001600160a01b0316610a9e8261055b565b6001600160a01b031614610b065760405162461bcd60e51b815260206004820152602960248201527f4552433732313a207472616e73666572206f6620746f6b656e2074686174206960448201526839903737ba1037bbb760b91b606482015260840161038c565b6001600160a01b038216610b685760405162461bcd60e51b8152602060048201526024808201527f4552433732313a207472616e7366657220746f20746865207a65726f206164646044820152637265737360e01b606482015260840161038c565b610b7360008261095b565b6001600160a01b0383166000908152600360205260408120805460019290610b9c9084906115b9565b90915550506001600160a01b0382166000908152600360205260408120805460019290610bca90849061158d565b909155505060008181526002602052604080822080546001600160a01b0319166001600160a01b0386811691821790925591518493918716917fddf252ad1be2c89b69c2b068fc378daa952ba7f163c4a11628f55a4df523b3ef91a4505050565b6001600160a01b038216610c815760405162461bcd60e51b815260206004820181905260248201527f4552433732313a206d696e7420746f20746865207a65726f2061646472657373604482015260640161038c565b610c8a8161093e565b15610cd75760405162461bcd60e51b815260206004820152601c60248201527f4552433732313a20746f6b656e20616c7265616479206d696e74656400000000604482015260640161038c565b6001600160a01b0382166000908152600360205260408120805460019290610d0090849061158d565b909155505060008181526002602052604080822080546001600160a01b0319166001600160a01b03861690811790915590518392907fddf252ad1be2c89b69c2b068fc378daa952ba7f163c4a11628f55a4df523b3ef908290a45050565b610d678261093e565b610dca5760405162461bcd60e51b815260206004820152602e60248201527f45524337323155524953746f726167653a2055524920736574206f66206e6f6e60448201526d32bc34b9ba32b73a103a37b5b2b760911b606482015260840161038c565b600082815260066020908152604090912082516104c29284019061111b565b610df4848484610a8b565b610e0084848484610ef4565b61075f5760405162461bcd60e51b815260040161038c906114ea565b6060610e278261093e565b610e8b5760405162461bcd60e51b815260206004820152602f60248201527f4552433732314d657461646174613a2055524920717565727920666f72206e6f60448201526e3732bc34b9ba32b73a103a37b5b2b760891b606482015260840161038c565b6000610ea260408051602081019091526000815290565b90506000815111610ec25760405180602001604052806000815250610eed565b80610ecc84611001565b604051602001610edd92919061146b565b6040516020818303038152906040525b9392505050565b60006001600160a01b0384163b15610ff657604051630a85bd0160e11b81526001600160a01b0385169063150b7a0290610f3890339089908890889060040161149a565b602060405180830381600087803b158015610f5257600080fd5b505af1925050508015610f82575060408051601f3d908101601f19168201909252610f7f918101906113c5565b60015b610fdc573d808015610fb0576040519150601f19603f3d011682016040523d82523d6000602084013e610fb5565b606091505b508051610fd45760405162461bcd60e51b815260040161038c906114ea565b805181602001fd5b6001600160e01b031916630a85bd0160e11b1490506108d4565b506001949350505050565b6060816110255750506040805180820190915260018152600360fc1b602082015290565b8160005b811561104f578061103981611637565b91506110489050600a836115a5565b9150611029565b60008167ffffffffffffffff81111561107857634e487b7160e01b600052604160045260246000fd5b6040519080825280601f01601f1916602001820160405280156110a2576020820181803683370190505b5090505b84156108d4576110b76001836115b9565b91506110c4600a86611652565b6110cf90603061158d565b60f81b8183815181106110f257634e487b7160e01b600052603260045260246000fd5b60200101906001600160f81b031916908160001a905350611114600a866115a5565b94506110a6565b828054611127906115fc565b90600052602060002090601f016020900481019282611149576000855561118f565b82601f1061116257805160ff191683800117855561118f565b8280016001018555821561118f579182015b8281111561118f578251825591602001919060010190611174565b5061119b92915061119f565b5090565b5b8082111561119b57600081556001016111a0565b600067ffffffffffffffff808411156111cf576111cf611692565b604051601f8501601f19908116603f011681019082821181831017156111f7576111f7611692565b8160405280935085815286868601111561121057600080fd5b858560208301376000602087830101525050509392505050565b80356001600160a01b038116811461124157600080fd5b919050565b600060208284031215611257578081fd5b610eed8261122a565b60008060408385031215611272578081fd5b61127b8361122a565b91506112896020840161122a565b90509250929050565b6000806000606084860312156112a6578081fd5b6112af8461122a565b92506112bd6020850161122a565b9150604084013590509250925092565b600080600080608085870312156112e2578081fd5b6112eb8561122a565b93506112f96020860161122a565b925060408501359150606085013567ffffffffffffffff81111561131b578182fd5b8501601f8101871361132b578182fd5b61133a878235602084016111b4565b91505092959194509250565b60008060408385031215611358578182fd5b6113618361122a565b915060208301358015158114611375578182fd5b809150509250929050565b60008060408385031215611392578182fd5b61139b8361122a565b946020939093013593505050565b6000602082840312156113ba578081fd5b8135610eed816116a8565b6000602082840312156113d6578081fd5b8151610eed816116a8565b6000602082840312156113f2578081fd5b813567ffffffffffffffff811115611408578182fd5b8201601f81018413611418578182fd5b6108d4848235602084016111b4565b600060208284031215611438578081fd5b5035919050565b600081518084526114578160208601602086016115d0565b601f01601f19169290920160200192915050565b6000835161147d8184602088016115d0565b8351908301906114918183602088016115d0565b01949350505050565b6001600160a01b03858116825284166020820152604081018390526080606082018190526000906114cd9083018461143f565b9695505050505050565b602081526000610eed602083018461143f565b60208082526032908201527f4552433732313a207472616e7366657220746f206e6f6e20455243373231526560408201527131b2b4bb32b91034b6b83632b6b2b73a32b960711b606082015260800190565b60208082526031908201527f4552433732313a207472616e736665722063616c6c6572206973206e6f74206f6040820152701ddb995c881b9bdc88185c1c1c9bdd9959607a1b606082015260800190565b600082198211156115a0576115a0611666565b500190565b6000826115b4576115b461167c565b500490565b6000828210156115cb576115cb611666565b500390565b60005b838110156115eb5781810151838201526020016115d3565b8381111561075f5750506000910152565b600181811c9082168061161057607f821691505b6020821081141561163157634e487b7160e01b600052602260045260246000fd5b50919050565b600060001982141561164b5761164b611666565b5060010190565b6000826116615761166161167c565b500690565b634e487b7160e01b600052601160045260246000fd5b634e487b7160e01b600052601260045260246000fd5b634e487b7160e01b600052604160045260246000fd5b6001600160e01b0319811681146116be57600080fd5b5056fea26469706673582212202540d99f0b1f1e96992a51fd3f894747a2209871f31c5917a5b7469cdc3ee4fc64736f6c63430008040033",
  "linkReferences": {},
  "deployedLinkReferences": {}
}