{
  "_format": "hh-sol-artifact-1",
  "contractName": "Locker",
  "sourceName": "contracts/Locker.sol",
  "abi": [
    {
      "anonymous": false,
      "inputs": [
        {
          "indexed": false,
          "internalType": "uint256",
          "name": "currentRound",
          "type": "uint256"
        }
      ],
      "name": "NewRound",
      "type": "event"
    },
    {
      "inputs": [],
      "name": "enter",
      "outputs": [],
      "stateMutability": "payable",
      "type": "function"
    },
    {
      "inputs": [],
      "name": "exit",
      "outputs": [],
      "stateMutability": "payable",
      "type": "function"
    },
    {
      "inputs": [],
      "name": "fetchAddressInfo",
      "outputs": [
        {
          "components": [
            {
              "internalType": "uint256",
              "name": "piggybank",
              "type": "uint256"
            },
            {
              "internalType": "uint256",
              "name": "id",
              "type": "uint256"
            },
            {
              "internalType": "uint256",
              "name": "lastRound",
              "type": "uint256"
            }
          ],
          "internalType": "struct Locker.locked",
          "name": "",
          "type": "tuple"
        }
      ],
      "stateMutability": "view",
      "type": "function"
    },
    {
      "inputs": [],
      "name": "fetchCurentRound",
      "outputs": [
        {
          "internalType": "uint256",
          "name": "",
          "type": "uint256"
        }
      ],
      "stateMutability": "view",
      "type": "function"
    },
    {
      "inputs": [],
      "name": "fetchPotentialRewardInfo",
      "outputs": [
        {
          "components": [
            {
              "internalType": "uint256",
              "name": "TVL",
              "type": "uint256"
            },
            {
              "internalType": "uint256",
              "name": "potentialPoolValue",
              "type": "uint256"
            },
            {
              "internalType": "uint256",
              "name": "potentialReward",
              "type": "uint256"
            },
            {
              "internalType": "uint256",
              "name": "timeLesft",
              "type": "uint256"
            }
          ],
          "internalType": "struct Locker.PotentialRewardInfo",
          "name": "",
          "type": "tuple"
        }
      ],
      "stateMutability": "view",
      "type": "function"
    },
    {
      "inputs": [],
      "name": "fetchRewards",
      "outputs": [
        {
          "internalType": "uint256",
          "name": "",
          "type": "uint256"
        }
      ],
      "stateMutability": "view",
      "type": "function"
    },
    {
      "inputs": [],
      "name": "reward",
      "outputs": [],
      "stateMutability": "nonpayable",
      "type": "function"
    }
  ],
  "bytecode": "0x6080604052603c600155670de0b6b3a7640000600255426004556001600555600060065534801561002f57600080fd5b506001600055610d1a806100446000396000f3fe6080604052600436106100705760003560e01c8063c87dd5ae1161004e578063c87dd5ae146100fc578063e97dcb6214610133578063e9fad8ee1461013b578063ed21aa891461014357600080fd5b8063228cb73314610075578063237151781461008c57806347aad8b6146100dd575b600080fd5b34801561008157600080fd5b5061008a610158565b005b34801561009857600080fd5b506100a1610566565b6040516100d491908151815260208083015190820152604080830151908201526060918201519181019190915260800190565b60405180910390f35b3480156100e957600080fd5b506005545b6040519081526020016100d4565b34801561010857600080fd5b50610111610777565b60408051825181526020808401519082015291810151908201526060016100d4565b61008a6107d5565b61008a6109a3565b34801561014f57600080fd5b506006546100ee565b6001546004546101689190610c45565b42116101af5760405162461bcd60e51b8152602060048201526011602482015270125d09dcc81b9bdd081d1a5b59481e595d607a1b60448201526064015b60405180910390fd5b60065460008060015b600354811161038f576000818152600860209081526040808320546005546001600160a01b03909116808552600790935292206002015490911115610348576001600160a01b0381166000908152600760205260409020600201546005546102209190610c9c565b61023290670de0b6b3a7640000610c7d565b6001600160a01b0382166000908152600760205260409020541015610294576001600160a01b0381166000908152600760205260409020546102749086610c45565b6001600160a01b038216600090815260076020526040812055945061037c565b6001600160a01b0381166000908152600760205260409020600201546005546102bd9190610c9c565b6102cf90670de0b6b3a7640000610c7d565b6001600160a01b038216600090815260076020526040812080549091906102f7908490610c9c565b90915550506001600160a01b0381166000908152600760205260409020600201546005546103259190610c9c565b61033790670de0b6b3a7640000610c7d565b6103419086610c45565b945061037c565b610353600185610c45565b6001600160a01b0382166000908152600760205260409020549094506103799084610c45565b92505b508061038781610cb3565b9150506101b8565b506103e060405180604001604052806005815260200164149bdd5b9960da1b8152506005546040518060400160405280600d81526020016c5553455253206f6e2074696d6560981b81525085610ae2565b61040c6040518060400160405280600a815260200169506f6f6c2056616c756560b01b81525084610b31565b811580610417575080155b1561043f5760016005600082825461042f9190610c45565b9091555050426004555050600655565b8260015b6003548111610505576000818152600860209081526040808320546005546001600160a01b039091168085526007909352922060020154909114156104f2576001600160a01b03811660009081526007602052604081205484906104a8908790610c5d565b6104b29190610c7d565b90506104be8188610c9c565b6001600160a01b0383166000908152600760205260408120805492995083929091906104eb908490610c45565b9091555050505b50806104fd81610cb3565b915050610443565b50426004819055506001600560008282546105209190610c45565b909155505060068490556005546040519081527fa2b5357eea32aeb35142ba36b087f9fe674f34f8b57ce94d30e9f4f572195bcf9060200160405180910390a150505050565b6105916040518060800160405280600081526020016000815260200160008152602001600081525090565b60065460008060015b60035481116106d7576000818152600860209081526040808320546005546001600160a01b03909116808552600790935292206002015490911115610690576001600160a01b0381166000908152600760205260409020600201546005546106029190610c9c565b6001600160a01b038216600090815260076020526040902054101561064b576001600160a01b0381166000908152600760205260409020546106449086610c45565b94506106c4565b6001600160a01b0381166000908152600760205260409020600201546005546106749190610c9c565b61068690670de0b6b3a7640000610c7d565b6106449086610c45565b61069b600185610c45565b6001600160a01b0382166000908152600760205260409020549094506106c19084610c45565b92505b50806106cf81610cb3565b91505061059a565b506000811561070c573360009081526007602052604090205484906106fd908490610c5d565b6107079190610c7d565b61070f565b60005b90506000600454426107219190610c9c565b6001541161073057600061074a565b60045461073d9042610c9c565b60015461074a9190610c9c565b90506040518060800160405280848152602001868152602001838152602001828152509550505050505090565b61079b60405180606001604052806000815260200160008152602001600081525090565b5033600090815260076020908152604091829020825160608101845281548152600182015492810192909252600201549181019190915290565b600260005414156108285760405162461bcd60e51b815260206004820152601f60248201527f5265656e7472616e637947756172643a207265656e7472616e742063616c6c0060448201526064016101a6565b600260005560015460045461083d9190610c45565b42111561084c5761084c610158565b60025434146108915760405162461bcd60e51b815260206004820152601160248201527056616c75652073686f756c64206265203160781b60448201526064016101a6565b600554336000908152600760205260409020600201541061090f5760405162461bcd60e51b815260206004820152603260248201527f4164647265737320616c72656164792070617274696369706174656420696e206044820152711d1a1a5cc810d5549491539517d493d5539160721b60648201526084016101a6565b3360009081526007602052604090206001015461096c57610934600380546001019055565b600354336000818152600760209081526040808320600101859055938252600890529190912080546001600160a01b03191690911790555b6005543360009081526007602052604081206002810192909255815434929190610997908490610c45565b90915550506001600055565b600260005414156109f65760405162461bcd60e51b815260206004820152601f60248201527f5265656e7472616e637947756172643a207265656e7472616e742063616c6c0060448201526064016101a6565b6002600055600154600454610a0b9190610c45565b421115610a1a57610a1a610158565b336000908152600760205260409020600254815411610a7b5760405162461bcd60e51b815260206004820152601b60248201527f596f7520646f6e2774206861766520656e6175676820636f696e73000000000060448201526064016101a6565b805460008083556002546006805491929091610a98908490610c45565b909155505060025433906108fc90610ab09084610c9c565b6040518115909202916000818181858888f19350505050158015610ad8573d6000803e3d6000fd5b5050600160005550565b610b2b84848484604051602401610afc9493929190610c08565b60408051601f198184030181529190526020810180516001600160e01b031663a0c4b22560e01b179052610b7a565b50505050565b610b768282604051602401610b47929190610be6565b60408051601f198184030181529190526020810180516001600160e01b03166309710a9d60e41b179052610b7a565b5050565b80516a636f6e736f6c652e6c6f67602083016000808483855afa5050505050565b60008151808452815b81811015610bc057602081850181015186830182015201610ba4565b81811115610bd15782602083870101525b50601f01601f19169290920160200192915050565b604081526000610bf96040830185610b9b565b90508260208301529392505050565b608081526000610c1b6080830187610b9b565b8560208401528281036040840152610c338186610b9b565b91505082606083015295945050505050565b60008219821115610c5857610c58610cce565b500190565b600082610c7857634e487b7160e01b81526012600452602481fd5b500490565b6000816000190483118215151615610c9757610c97610cce565b500290565b600082821015610cae57610cae610cce565b500390565b6000600019821415610cc757610cc7610cce565b5060010190565b634e487b7160e01b600052601160045260246000fdfea2646970667358221220939f8003c7bece04b575739696c9e5ae95f0c4c866ee530f2029156a7fe013a664736f6c63430008040033",
  "linkReferences": {},
  "deployedLinkReferences": {}
}