{
  "_format": "hh-sol-artifact-1",
  "contractName": "NFTMarket",
  "sourceName": "contracts/Market.sol",
  "abi": [
    {
      "inputs": [],
      "stateMutability": "nonpayable",
      "type": "constructor"
    },
    {
      "anonymous": false,
      "inputs": [
        {
          "indexed": true,
          "internalType": "uint256",
          "name": "itemId",
          "type": "uint256"
        },
        {
          "indexed": true,
          "internalType": "address",
          "name": "nftContract",
          "type": "address"
        },
        {
          "indexed": true,
          "internalType": "uint256",
          "name": "tokenId",
          "type": "uint256"
        },
        {
          "indexed": false,
          "internalType": "address",
          "name": "seller",
          "type": "address"
        },
        {
          "indexed": false,
          "internalType": "address",
          "name": "owner",
          "type": "address"
        },
        {
          "indexed": false,
          "internalType": "uint256",
          "name": "price",
          "type": "uint256"
        },
        {
          "indexed": false,
          "internalType": "bool",
          "name": "sold",
          "type": "bool"
        }
      ],
      "name": "MarketItemCreated",
      "type": "event"
    },
    {
      "inputs": [
        {
          "internalType": "address",
          "name": "nftContract",
          "type": "address"
        },
        {
          "internalType": "uint256",
          "name": "tokenId",
          "type": "uint256"
        },
        {
          "internalType": "uint256",
          "name": "price",
          "type": "uint256"
        }
      ],
      "name": "createMarketItem",
      "outputs": [],
      "stateMutability": "payable",
      "type": "function"
    },
    {
      "inputs": [
        {
          "internalType": "address",
          "name": "nftContract",
          "type": "address"
        },
        {
          "internalType": "uint256",
          "name": "itemId",
          "type": "uint256"
        }
      ],
      "name": "createMarketSale",
      "outputs": [],
      "stateMutability": "payable",
      "type": "function"
    },
    {
      "inputs": [],
      "name": "fetchAllMarketItems",
      "outputs": [
        {
          "components": [
            {
              "internalType": "uint256",
              "name": "itemId",
              "type": "uint256"
            },
            {
              "internalType": "address",
              "name": "nftContract",
              "type": "address"
            },
            {
              "internalType": "uint256",
              "name": "tokenId",
              "type": "uint256"
            },
            {
              "internalType": "address payable",
              "name": "seller",
              "type": "address"
            },
            {
              "internalType": "address payable",
              "name": "owner",
              "type": "address"
            },
            {
              "internalType": "uint256",
              "name": "price",
              "type": "uint256"
            },
            {
              "internalType": "bool",
              "name": "sold",
              "type": "bool"
            }
          ],
          "internalType": "struct NFTMarket.MarketItem[]",
          "name": "",
          "type": "tuple[]"
        }
      ],
      "stateMutability": "view",
      "type": "function"
    },
    {
      "inputs": [],
      "name": "fetchItemsCreated",
      "outputs": [
        {
          "components": [
            {
              "internalType": "uint256",
              "name": "itemId",
              "type": "uint256"
            },
            {
              "internalType": "address",
              "name": "nftContract",
              "type": "address"
            },
            {
              "internalType": "uint256",
              "name": "tokenId",
              "type": "uint256"
            },
            {
              "internalType": "address payable",
              "name": "seller",
              "type": "address"
            },
            {
              "internalType": "address payable",
              "name": "owner",
              "type": "address"
            },
            {
              "internalType": "uint256",
              "name": "price",
              "type": "uint256"
            },
            {
              "internalType": "bool",
              "name": "sold",
              "type": "bool"
            }
          ],
          "internalType": "struct NFTMarket.MarketItem[]",
          "name": "",
          "type": "tuple[]"
        }
      ],
      "stateMutability": "view",
      "type": "function"
    },
    {
      "inputs": [],
      "name": "fetchMarketItems",
      "outputs": [
        {
          "components": [
            {
              "internalType": "uint256",
              "name": "itemId",
              "type": "uint256"
            },
            {
              "internalType": "address",
              "name": "nftContract",
              "type": "address"
            },
            {
              "internalType": "uint256",
              "name": "tokenId",
              "type": "uint256"
            },
            {
              "internalType": "address payable",
              "name": "seller",
              "type": "address"
            },
            {
              "internalType": "address payable",
              "name": "owner",
              "type": "address"
            },
            {
              "internalType": "uint256",
              "name": "price",
              "type": "uint256"
            },
            {
              "internalType": "bool",
              "name": "sold",
              "type": "bool"
            }
          ],
          "internalType": "struct NFTMarket.MarketItem[]",
          "name": "",
          "type": "tuple[]"
        }
      ],
      "stateMutability": "view",
      "type": "function"
    },
    {
      "inputs": [],
      "name": "fetchMyNFTs",
      "outputs": [
        {
          "components": [
            {
              "internalType": "uint256",
              "name": "itemId",
              "type": "uint256"
            },
            {
              "internalType": "address",
              "name": "nftContract",
              "type": "address"
            },
            {
              "internalType": "uint256",
              "name": "tokenId",
              "type": "uint256"
            },
            {
              "internalType": "address payable",
              "name": "seller",
              "type": "address"
            },
            {
              "internalType": "address payable",
              "name": "owner",
              "type": "address"
            },
            {
              "internalType": "uint256",
              "name": "price",
              "type": "uint256"
            },
            {
              "internalType": "bool",
              "name": "sold",
              "type": "bool"
            }
          ],
          "internalType": "struct NFTMarket.MarketItem[]",
          "name": "",
          "type": "tuple[]"
        }
      ],
      "stateMutability": "view",
      "type": "function"
    },
    {
      "inputs": [],
      "name": "getListingPrice",
      "outputs": [
        {
          "internalType": "uint256",
          "name": "",
          "type": "uint256"
        }
      ],
      "stateMutability": "view",
      "type": "function"
    },
    {
      "inputs": [
        {
          "internalType": "address",
          "name": "nftContract",
          "type": "address"
        },
        {
          "internalType": "address",
          "name": "to",
          "type": "address"
        },
        {
          "internalType": "uint256",
          "name": "tokenId",
          "type": "uint256"
        }
      ],
      "name": "transferTo",
      "outputs": [],
      "stateMutability": "nonpayable",
      "type": "function"
    }
  ],
  "bytecode": "0x608060405266b1a2bc2ec5000060035534801561001b57600080fd5b506001600055600280546001600160a01b0319163317905561105e806100426000396000f3fe60806040526004361061007b5760003560e01c8063a5f2a1521161004e578063a5f2a152146100f3578063c23b139e14610113578063dfb6452b14610126578063f064c32e1461013b57600080fd5b80630f08efe01461008057806312e85585146100ab578063202e3740146100c957806358eb2df5146100de575b600080fd5b34801561008c57600080fd5b50610095610150565b6040516100a29190610f4b565b60405180910390f35b3480156100b757600080fd5b506003546040519081526020016100a2565b3480156100d557600080fd5b50610095610333565b6100f16100ec366004610f19565b610517565b005b3480156100ff57600080fd5b506100f161010e366004610eb5565b610816565b6100f1610121366004610ef0565b61091d565b34801561013257600080fd5b50610095610b2a565b34801561014757600080fd5b50610095610c79565b6060600061015d60015490565b90506000805b828110156101b5576004600061017a836001610fdf565b815260208101919091526040016000206006015460ff166101a3578161019f81610ff7565b9250505b806101ad81610ff7565b915050610163565b506000808267ffffffffffffffff8111156101e057634e487b7160e01b600052604160045260246000fd5b60405190808252806020026020018201604052801561021957816020015b610206610e5d565b8152602001906001900390816101fe5790505b50905060005b8481101561032a576000600481610237846001610fdf565b81526020810191909152604001600020600401546001600160a01b03161415610318576000610267826001610fdf565b600081815260046020818152604092839020835160e0810185528154815260018201546001600160a01b039081169382019390935260028201549481019490945260038101548216606085015291820154166080830152600581015460a0830152600681015460ff16151560c08301528551929350918590879081106102fd57634e487b7160e01b600052603260045260246000fd5b6020908102919091010152610313600186610fdf565b945050505b8061032281610ff7565b91505061021f565b50949350505050565b6060600061034060015490565b905060008060005b838110156103a3573360046000610360846001610fdf565b81526020810191909152604001600020600401546001600160a01b031614156103915761038e600184610fdf565b92505b8061039b81610ff7565b915050610348565b5060008267ffffffffffffffff8111156103cd57634e487b7160e01b600052604160045260246000fd5b60405190808252806020026020018201604052801561040657816020015b6103f3610e5d565b8152602001906001900390816103eb5790505b50905060005b8481101561032a573360046000610424846001610fdf565b81526020810191909152604001600020600401546001600160a01b03161415610505576000610454826001610fdf565b600081815260046020818152604092839020835160e0810185528154815260018201546001600160a01b039081169382019390935260028201549481019490945260038101548216606085015291820154166080830152600581015460a0830152600681015460ff16151560c08301528551929350918590879081106104ea57634e487b7160e01b600052603260045260246000fd5b6020908102919091010152610500600186610fdf565b945050505b8061050f81610ff7565b91505061040c565b6002600054141561056f5760405162461bcd60e51b815260206004820152601f60248201527f5265656e7472616e637947756172643a207265656e7472616e742063616c6c0060448201526064015b60405180910390fd5b6002600055806105c15760405162461bcd60e51b815260206004820152601c60248201527f5072696365206d757374206265206174206c65617374203120776569000000006044820152606401610566565b600354341461061e5760405162461bcd60e51b8152602060048201526024808201527f5072696365206d75737420626520657175616c20746f206c697374696e6720706044820152637269636560e01b6064820152608401610566565b600061062960015490565b9050600080805b83811015610683578560046000610648846001610fdf565b8152602001908152602001600020600201541415610671576001925061066e8184610fdf565b91505b8061067b81610ff7565b915050610630565b508161069c57610697600180546001019055565b506001545b6040805160e0810182528281526001600160a01b0388811660208084018281528486018b8152336060870181815260006080890181815260a08a018f815260c08b018381528d8452600498899052928c90209a518b55955160018b0180546001600160a01b0319908116928c16929092179055945160028b0155915160038a0180548616918a16919091179055905188860180549094169716969096179091559051600586015592516006909401805460ff19169415159490941790935592516323b872dd60e01b815291820152306024820152604481018790526323b872dd90606401600060405180830381600087803b15801561079a57600080fd5b505af11580156107ae573d6000803e3d6000fd5b505060408051338152600060208201819052818301899052606082015290518893506001600160a01b038a16925084917f045dfa01dcba2b36aba1d3dc4a874f4b0c5d2fbeb8d2c4b34a7d88c8d8f929d1919081900360800190a45050600160005550505050565b6040516323b872dd60e01b81523360048201526001600160a01b038381166024830152604482018390528416906323b872dd90606401600060405180830381600087803b15801561086657600080fd5b505af115801561087a573d6000803e3d6000fd5b50505050600061088960015490565b905060005b818110156109165782600460006108a6846001610fdf565b81526020019081526020016000206002015414156109045783600460006108ce846001610fdf565b815260200190815260200160002060040160006101000a8154816001600160a01b0302191690836001600160a01b031602179055505b8061090e81610ff7565b91505061088e565b5050505050565b600260005414156109705760405162461bcd60e51b815260206004820152601f60248201527f5265656e7472616e637947756172643a207265656e7472616e742063616c6c006044820152606401610566565b600260008181558281526004602052604090206005810154910154348214610a02576040805162461bcd60e51b81526020600482015260248101919091527f506c65617365207375626d6974207468652061736b696e67207072696365206960448201527f6e206f7264657220746f20636f6d706c657465207468652070757263686173656064820152608401610566565b6000838152600460205260408082206003015490516001600160a01b03909116913480156108fc02929091818181858888f19350505050158015610a4a573d6000803e3d6000fd5b506040516323b872dd60e01b8152306004820152336024820152604481018290526001600160a01b038516906323b872dd90606401600060405180830381600087803b158015610a9957600080fd5b505af1158015610aad573d6000803e3d6000fd5b505050600084815260046020819052604080832091820180546001600160a01b031916331790556006909101805460ff1916600117905560025460035491516001600160a01b0391909116935081156108fc0292818181858888f19350505050158015610b1e573d6000803e3d6000fd5b50506001600055505050565b60606000610b3760015490565b905060008167ffffffffffffffff811115610b6257634e487b7160e01b600052604160045260246000fd5b604051908082528060200260200182016040528015610b9b57816020015b610b88610e5d565b815260200190600190039081610b805790505b50905060005b82811015610c72576000600481610bb9846001610fdf565b81526020808201929092526040908101600020815160e0810183528154815260018201546001600160a01b039081169482019490945260028201549281019290925260038101548316606083015260048101549092166080820152600582015460a0820152600682015460ff16151560c0820152845191925090849084908110610c5357634e487b7160e01b600052603260045260246000fd5b6020026020010181905250508080610c6a90610ff7565b915050610ba1565b5092915050565b60606000610c8660015490565b905060008060005b83811015610ce9573360046000610ca6846001610fdf565b81526020810191909152604001600020600301546001600160a01b03161415610cd757610cd4600184610fdf565b92505b80610ce181610ff7565b915050610c8e565b5060008267ffffffffffffffff811115610d1357634e487b7160e01b600052604160045260246000fd5b604051908082528060200260200182016040528015610d4c57816020015b610d39610e5d565b815260200190600190039081610d315790505b50905060005b8481101561032a573360046000610d6a846001610fdf565b81526020810191909152604001600020600301546001600160a01b03161415610e4b576000610d9a826001610fdf565b600081815260046020818152604092839020835160e0810185528154815260018201546001600160a01b039081169382019390935260028201549481019490945260038101548216606085015291820154166080830152600581015460a0830152600681015460ff16151560c0830152855192935091859087908110610e3057634e487b7160e01b600052603260045260246000fd5b6020908102919091010152610e46600186610fdf565b945050505b80610e5581610ff7565b915050610d52565b6040805160e081018252600080825260208201819052918101829052606081018290526080810182905260a0810182905260c081019190915290565b80356001600160a01b0381168114610eb057600080fd5b919050565b600080600060608486031215610ec9578283fd5b610ed284610e99565b9250610ee060208501610e99565b9150604084013590509250925092565b60008060408385031215610f02578081fd5b610f0b83610e99565b946020939093013593505050565b600080600060608486031215610f2d578283fd5b610f3684610e99565b95602085013595506040909401359392505050565b602080825282518282018190526000919060409081850190868401855b82811015610fd257815180518552868101516001600160a01b039081168887015286820151878701526060808301518216908701526080808301519091169086015260a0808201519086015260c09081015115159085015260e09093019290850190600101610f68565b5091979650505050505050565b60008219821115610ff257610ff2611012565b500190565b600060001982141561100b5761100b611012565b5060010190565b634e487b7160e01b600052601160045260246000fdfea264697066735822122088ff48cf71392cde852ffc032dd2412c4636b939504f7372a4f0eaeb5492e2f164736f6c63430008040033",
  "linkReferences": {},
  "deployedLinkReferences": {}
}