{
  "contractName": "NVM",
  "abi": [
    {
      "inputs": [],
      "stateMutability": "nonpayable",
      "type": "constructor"
    },
    {
      "anonymous": false,
      "inputs": [
        {
          "indexed": true,
          "internalType": "address",
          "name": "owner",
          "type": "address"
        },
        {
          "indexed": true,
          "internalType": "address",
          "name": "approved",
          "type": "address"
        },
        {
          "indexed": true,
          "internalType": "uint256",
          "name": "tokenId",
          "type": "uint256"
        }
      ],
      "name": "Approval",
      "type": "event"
    },
    {
      "anonymous": false,
      "inputs": [
        {
          "indexed": true,
          "internalType": "address",
          "name": "owner",
          "type": "address"
        },
        {
          "indexed": true,
          "internalType": "address",
          "name": "operator",
          "type": "address"
        },
        {
          "indexed": false,
          "internalType": "bool",
          "name": "approved",
          "type": "bool"
        }
      ],
      "name": "ApprovalForAll",
      "type": "event"
    },
    {
      "anonymous": false,
      "inputs": [
        {
          "indexed": true,
          "internalType": "address",
          "name": "from",
          "type": "address"
        },
        {
          "indexed": true,
          "internalType": "address",
          "name": "to",
          "type": "address"
        },
        {
          "indexed": true,
          "internalType": "uint256",
          "name": "tokenId",
          "type": "uint256"
        }
      ],
      "name": "Transfer",
      "type": "event"
    },
    {
      "inputs": [],
      "name": "_administrator",
      "outputs": [
        {
          "internalType": "address",
          "name": "",
          "type": "address"
        }
      ],
      "stateMutability": "view",
      "type": "function"
    },
    {
      "inputs": [
        {
          "internalType": "address",
          "name": "to",
          "type": "address"
        },
        {
          "internalType": "uint256",
          "name": "tokenId",
          "type": "uint256"
        }
      ],
      "name": "approve",
      "outputs": [],
      "stateMutability": "nonpayable",
      "type": "function"
    },
    {
      "inputs": [
        {
          "internalType": "address",
          "name": "owner",
          "type": "address"
        }
      ],
      "name": "balanceOf",
      "outputs": [
        {
          "internalType": "uint256",
          "name": "",
          "type": "uint256"
        }
      ],
      "stateMutability": "view",
      "type": "function"
    },
    {
      "inputs": [
        {
          "internalType": "uint256",
          "name": "tokenId",
          "type": "uint256"
        }
      ],
      "name": "getApproved",
      "outputs": [
        {
          "internalType": "address",
          "name": "",
          "type": "address"
        }
      ],
      "stateMutability": "view",
      "type": "function"
    },
    {
      "inputs": [
        {
          "internalType": "address",
          "name": "owner",
          "type": "address"
        },
        {
          "internalType": "address",
          "name": "operator",
          "type": "address"
        }
      ],
      "name": "isApprovedForAll",
      "outputs": [
        {
          "internalType": "bool",
          "name": "",
          "type": "bool"
        }
      ],
      "stateMutability": "view",
      "type": "function"
    },
    {
      "inputs": [],
      "name": "name",
      "outputs": [
        {
          "internalType": "string",
          "name": "",
          "type": "string"
        }
      ],
      "stateMutability": "view",
      "type": "function"
    },
    {
      "inputs": [
        {
          "internalType": "uint256",
          "name": "tokenId",
          "type": "uint256"
        }
      ],
      "name": "ownerOf",
      "outputs": [
        {
          "internalType": "address",
          "name": "",
          "type": "address"
        }
      ],
      "stateMutability": "view",
      "type": "function"
    },
    {
      "inputs": [
        {
          "internalType": "address",
          "name": "from",
          "type": "address"
        },
        {
          "internalType": "address",
          "name": "to",
          "type": "address"
        },
        {
          "internalType": "uint256",
          "name": "tokenId",
          "type": "uint256"
        }
      ],
      "name": "safeTransferFrom",
      "outputs": [],
      "stateMutability": "nonpayable",
      "type": "function"
    },
    {
      "inputs": [
        {
          "internalType": "address",
          "name": "from",
          "type": "address"
        },
        {
          "internalType": "address",
          "name": "to",
          "type": "address"
        },
        {
          "internalType": "uint256",
          "name": "tokenId",
          "type": "uint256"
        },
        {
          "internalType": "bytes",
          "name": "_data",
          "type": "bytes"
        }
      ],
      "name": "safeTransferFrom",
      "outputs": [],
      "stateMutability": "nonpayable",
      "type": "function"
    },
    {
      "inputs": [
        {
          "internalType": "address",
          "name": "operator",
          "type": "address"
        },
        {
          "internalType": "bool",
          "name": "approved",
          "type": "bool"
        }
      ],
      "name": "setApprovalForAll",
      "outputs": [],
      "stateMutability": "nonpayable",
      "type": "function"
    },
    {
      "inputs": [
        {
          "internalType": "bytes4",
          "name": "interfaceId",
          "type": "bytes4"
        }
      ],
      "name": "supportsInterface",
      "outputs": [
        {
          "internalType": "bool",
          "name": "",
          "type": "bool"
        }
      ],
      "stateMutability": "view",
      "type": "function"
    },
    {
      "inputs": [],
      "name": "symbol",
      "outputs": [
        {
          "internalType": "string",
          "name": "",
          "type": "string"
        }
      ],
      "stateMutability": "view",
      "type": "function"
    },
    {
      "inputs": [
        {
          "internalType": "uint256",
          "name": "index",
          "type": "uint256"
        }
      ],
      "name": "tokenByIndex",
      "outputs": [
        {
          "internalType": "uint256",
          "name": "",
          "type": "uint256"
        }
      ],
      "stateMutability": "view",
      "type": "function"
    },
    {
      "inputs": [
        {
          "internalType": "address",
          "name": "owner",
          "type": "address"
        },
        {
          "internalType": "uint256",
          "name": "index",
          "type": "uint256"
        }
      ],
      "name": "tokenOfOwnerByIndex",
      "outputs": [
        {
          "internalType": "uint256",
          "name": "",
          "type": "uint256"
        }
      ],
      "stateMutability": "view",
      "type": "function"
    },
    {
      "inputs": [
        {
          "internalType": "uint256",
          "name": "tokenId",
          "type": "uint256"
        }
      ],
      "name": "tokenURI",
      "outputs": [
        {
          "internalType": "string",
          "name": "",
          "type": "string"
        }
      ],
      "stateMutability": "view",
      "type": "function"
    },
    {
      "inputs": [],
      "name": "totalSupply",
      "outputs": [
        {
          "internalType": "uint256",
          "name": "",
          "type": "uint256"
        }
      ],
      "stateMutability": "view",
      "type": "function"
    },
    {
      "inputs": [
        {
          "internalType": "address",
          "name": "from",
          "type": "address"
        },
        {
          "internalType": "address",
          "name": "to",
          "type": "address"
        },
        {
          "internalType": "uint256",
          "name": "tokenId",
          "type": "uint256"
        }
      ],
      "name": "transferFrom",
      "outputs": [],
      "stateMutability": "nonpayable",
      "type": "function"
    },
    {
      "inputs": [
        {
          "internalType": "address",
          "name": "to",
          "type": "address"
        }
      ],
      "name": "createItem",
      "outputs": [
        {
          "internalType": "uint256",
          "name": "",
          "type": "uint256"
        }
      ],
      "stateMutability": "nonpayable",
      "type": "function"
    }
  ],
  "bytecode": "0x60806040523480156200001157600080fd5b506040518060400160405280601681526020017f546865204e46542056656e64696e674d616368696e65000000000000000000008152506040518060400160405280600481526020017f544e564d00000000000000000000000000000000000000000000000000000000815250816000908051906020019062000096929190620000f9565b508060019080519060200190620000af929190620000f9565b50505033600a60006101000a81548173ffffffffffffffffffffffffffffffffffffffff021916908373ffffffffffffffffffffffffffffffffffffffff1602179055506200020e565b8280546200010790620001a9565b90600052602060002090601f0160209004810192826200012b576000855562000177565b82601f106200014657805160ff191683800117855562000177565b8280016001018555821562000177579182015b828111156200017657825182559160200191906001019062000159565b5b5090506200018691906200018a565b5090565b5b80821115620001a55760008160009055506001016200018b565b5090565b60006002820490506001821680620001c257607f821691505b60208210811415620001d957620001d8620001df565b5b50919050565b7f4e487b7100000000000000000000000000000000000000000000000000000000600052602260045260246000fd5b612bb0806200021e6000396000f3fe608060405234801561001057600080fd5b50600436106101165760003560e01c80634f6ccce7116100a2578063a22cb46511610071578063a22cb46514610319578063ab87217b14610335578063b88d4fde14610353578063c87b56dd1461036f578063e985e9c51461039f57610116565b80634f6ccce71461026b5780636352211e1461029b57806370a08231146102cb57806395d89b41146102fb57610116565b806318160ddd116100e957806318160ddd146101b557806323b872dd146101d35780632f745c59146101ef5780633db12d031461021f57806342842e0e1461024f57610116565b806301ffc9a71461011b57806306fdde031461014b578063081812fc14610169578063095ea7b314610199575b600080fd5b61013560048036038101906101309190611e34565b6103cf565b6040516101429190612578565b60405180910390f35b610153610449565b6040516101609190612593565b60405180910390f35b610183600480360381019061017e9190611e86565b6104db565b6040516101909190612511565b60405180910390f35b6101b360048036038101906101ae9190611df8565b610560565b005b6101bd610678565b6040516101ca9190612775565b60405180910390f35b6101ed60048036038101906101e89190611cf2565b610685565b005b61020960048036038101906102049190611df8565b6106e5565b6040516102169190612775565b60405180910390f35b61023960048036038101906102349190611c8d565b61078a565b6040516102469190612775565b60405180910390f35b61026960048036038101906102649190611cf2565b610791565b005b61028560048036038101906102809190611e86565b6107b1565b6040516102929190612775565b60405180910390f35b6102b560048036038101906102b09190611e86565b610848565b6040516102c29190612511565b60405180910390f35b6102e560048036038101906102e09190611c8d565b6108fa565b6040516102f29190612775565b60405180910390f35b6103036109b2565b6040516103109190612593565b60405180910390f35b610333600480360381019061032e9190611dbc565b610a44565b005b61033d610bc5565b60405161034a9190612511565b60405180910390f35b61036d60048036038101906103689190611d41565b610beb565b005b61038960048036038101906103849190611e86565b610c4d565b6040516103969190612593565b60405180910390f35b6103b960048036038101906103b49190611cb6565b610cf4565b6040516103c69190612578565b60405180910390f35b60007f780e9d63000000000000000000000000000000000000000000000000000000007bffffffffffffffffffffffffffffffffffffffffffffffffffffffff1916827bffffffffffffffffffffffffffffffffffffffffffffffffffffffff19161480610442575061044182610d88565b5b9050919050565b606060008054610458906129a5565b80601f0160208091040260200160405190810160405280929190818152602001828054610484906129a5565b80156104d15780601f106104a6576101008083540402835291602001916104d1565b820191906000526020600020905b8154815290600101906020018083116104b457829003601f168201915b5050505050905090565b60006104e682610e6a565b610525576040517f08c379a000000000000000000000000000000000000000000000000000000000815260040161051c906126b5565b60405180910390fd5b6004600083815260200190815260200160002060009054906101000a900473ffffffffffffffffffffffffffffffffffffffff169050919050565b600061056b82610848565b90508073ffffffffffffffffffffffffffffffffffffffff168373ffffffffffffffffffffffffffffffffffffffff1614156105dc576040517f08c379a00000000000000000000000000000000000000000000000000000000081526004016105d390612715565b60405180910390fd5b8073ffffffffffffffffffffffffffffffffffffffff166105fb610ed6565b73ffffffffffffffffffffffffffffffffffffffff16148061062a575061062981610624610ed6565b610cf4565b5b610669576040517f08c379a000000000000000000000000000000000000000000000000000000000815260040161066090612655565b60405180910390fd5b6106738383610ede565b505050565b6000600880549050905090565b610696610690610ed6565b82610f97565b6106d5576040517f08c379a00000000000000000000000000000000000000000000000000000000081526004016106cc90612735565b60405180910390fd5b6106e0838383611075565b505050565b60006106f0836108fa565b8210610731576040517f08c379a0000000000000000000000000000000000000000000000000000000008152600401610728906125b5565b60405180910390fd5b600660008473ffffffffffffffffffffffffffffffffffffffff1673ffffffffffffffffffffffffffffffffffffffff168152602001908152602001600020600083815260200190815260200160002054905092915050565b6000919050565b6107ac83838360405180602001604052806000815250610beb565b505050565b60006107bb610678565b82106107fc576040517f08c379a00000000000000000000000000000000000000000000000000000000081526004016107f390612755565b60405180910390fd5b60088281548110610836577f4e487b7100000000000000000000000000000000000000000000000000000000600052603260045260246000fd5b90600052602060002001549050919050565b6000806002600084815260200190815260200160002060009054906101000a900473ffffffffffffffffffffffffffffffffffffffff169050600073ffffffffffffffffffffffffffffffffffffffff168173ffffffffffffffffffffffffffffffffffffffff1614156108f1576040517f08c379a00000000000000000000000000000000000000000000000000000000081526004016108e890612695565b60405180910390fd5b80915050919050565b60008073ffffffffffffffffffffffffffffffffffffffff168273ffffffffffffffffffffffffffffffffffffffff16141561096b576040517f08c379a000000000000000000000000000000000000000000000000000000000815260040161096290612675565b60405180910390fd5b600360008373ffffffffffffffffffffffffffffffffffffffff1673ffffffffffffffffffffffffffffffffffffffff168152602001908152602001600020549050919050565b6060600180546109c1906129a5565b80601f01602080910402602001604051908101604052809291908181526020018280546109ed906129a5565b8015610a3a5780601f10610a0f57610100808354040283529160200191610a3a565b820191906000526020600020905b815481529060010190602001808311610a1d57829003601f168201915b5050505050905090565b610a4c610ed6565b73ffffffffffffffffffffffffffffffffffffffff168273ffffffffffffffffffffffffffffffffffffffff161415610aba576040517f08c379a0000000000000000000000000000000000000000000000000000000008152600401610ab190612615565b60405180910390fd5b8060056000610ac7610ed6565b73ffffffffffffffffffffffffffffffffffffffff1673ffffffffffffffffffffffffffffffffffffffff16815260200190815260200160002060008473ffffffffffffffffffffffffffffffffffffffff1673ffffffffffffffffffffffffffffffffffffffff16815260200190815260200160002060006101000a81548160ff0219169083151502179055508173ffffffffffffffffffffffffffffffffffffffff16610b74610ed6565b73ffffffffffffffffffffffffffffffffffffffff167f17307eab39ab6107e8899845ad3d59bd9653f200f220920489ca2b5937696c3183604051610bb99190612578565b60405180910390a35050565b600a60009054906101000a900473ffffffffffffffffffffffffffffffffffffffff1681565b610bfc610bf6610ed6565b83610f97565b610c3b576040517f08c379a0000000000000000000000000000000000000000000000000000000008152600401610c3290612735565b60405180910390fd5b610c47848484846112d1565b50505050565b6060610c5882610e6a565b610c97576040517f08c379a0000000000000000000000000000000000000000000000000000000008152600401610c8e906126f5565b60405180910390fd5b6000610ca161132d565b90506000815111610cc15760405180602001604052806000815250610cec565b80610ccb8461136a565b604051602001610cdc9291906124ed565b6040516020818303038152906040525b915050919050565b6000600560008473ffffffffffffffffffffffffffffffffffffffff1673ffffffffffffffffffffffffffffffffffffffff16815260200190815260200160002060008373ffffffffffffffffffffffffffffffffffffffff1673ffffffffffffffffffffffffffffffffffffffff16815260200190815260200160002060009054906101000a900460ff16905092915050565b60007f80ac58cd000000000000000000000000000000000000000000000000000000007bffffffffffffffffffffffffffffffffffffffffffffffffffffffff1916827bffffffffffffffffffffffffffffffffffffffffffffffffffffffff19161480610e5357507f5b5e139f000000000000000000000000000000000000000000000000000000007bffffffffffffffffffffffffffffffffffffffffffffffffffffffff1916827bffffffffffffffffffffffffffffffffffffffffffffffffffffffff1916145b80610e635750610e6282611517565b5b9050919050565b60008073ffffffffffffffffffffffffffffffffffffffff166002600084815260200190815260200160002060009054906101000a900473ffffffffffffffffffffffffffffffffffffffff1673ffffffffffffffffffffffffffffffffffffffff1614159050919050565b600033905090565b816004600083815260200190815260200160002060006101000a81548173ffffffffffffffffffffffffffffffffffffffff021916908373ffffffffffffffffffffffffffffffffffffffff160217905550808273ffffffffffffffffffffffffffffffffffffffff16610f5183610848565b73ffffffffffffffffffffffffffffffffffffffff167f8c5be1e5ebec7d5bd14f71427d1e84f3dd0314c0f7b2291e5b200ac8c7c3b92560405160405180910390a45050565b6000610fa282610e6a565b610fe1576040517f08c379a0000000000000000000000000000000000000000000000000000000008152600401610fd890612635565b60405180910390fd5b6000610fec83610848565b90508073ffffffffffffffffffffffffffffffffffffffff168473ffffffffffffffffffffffffffffffffffffffff16148061105b57508373ffffffffffffffffffffffffffffffffffffffff16611043846104db565b73ffffffffffffffffffffffffffffffffffffffff16145b8061106c575061106b8185610cf4565b5b91505092915050565b8273ffffffffffffffffffffffffffffffffffffffff1661109582610848565b73ffffffffffffffffffffffffffffffffffffffff16146110eb576040517f08c379a00000000000000000000000000000000000000000000000000000000081526004016110e2906126d5565b60405180910390fd5b600073ffffffffffffffffffffffffffffffffffffffff168273ffffffffffffffffffffffffffffffffffffffff16141561115b576040517f08c379a0000000000000000000000000000000000000000000000000000000008152600401611152906125f5565b60405180910390fd5b611166838383611581565b611171600082610ede565b6001600360008573ffffffffffffffffffffffffffffffffffffffff1673ffffffffffffffffffffffffffffffffffffffff16815260200190815260200160002060008282546111c191906128bb565b925050819055506001600360008473ffffffffffffffffffffffffffffffffffffffff1673ffffffffffffffffffffffffffffffffffffffff16815260200190815260200160002060008282546112189190612834565b92505081905550816002600083815260200190815260200160002060006101000a81548173ffffffffffffffffffffffffffffffffffffffff021916908373ffffffffffffffffffffffffffffffffffffffff160217905550808273ffffffffffffffffffffffffffffffffffffffff168473ffffffffffffffffffffffffffffffffffffffff167fddf252ad1be2c89b69c2b068fc378daa952ba7f163c4a11628f55a4df523b3ef60405160405180910390a4505050565b6112dc848484611075565b6112e884848484611695565b611327576040517f08c379a000000000000000000000000000000000000000000000000000000000815260040161131e906125d5565b60405180910390fd5b50505050565b60606040518060400160405280601581526020017f687474703a2f2f6c6f63616c686f73743a3132332f0000000000000000000000815250905090565b606060008214156113b2576040518060400160405280600181526020017f30000000000000000000000000000000000000000000000000000000000000008152509050611512565b600082905060005b600082146113e45780806113cd906129d7565b915050600a826113dd919061288a565b91506113ba565b60008167ffffffffffffffff811115611426577f4e487b7100000000000000000000000000000000000000000000000000000000600052604160045260246000fd5b6040519080825280601f01601f1916602001820160405280156114585781602001600182028036833780820191505090505b5090505b6000851461150b5760018261147191906128bb565b9150600a856114809190612a20565b603061148c9190612834565b60f81b8183815181106114c8577f4e487b7100000000000000000000000000000000000000000000000000000000600052603260045260246000fd5b60200101907effffffffffffffffffffffffffffffffffffffffffffffffffffffffffffff1916908160001a905350600a85611504919061288a565b945061145c565b8093505050505b919050565b60007f01ffc9a7000000000000000000000000000000000000000000000000000000007bffffffffffffffffffffffffffffffffffffffffffffffffffffffff1916827bffffffffffffffffffffffffffffffffffffffffffffffffffffffff1916149050919050565b61158c83838361182c565b600073ffffffffffffffffffffffffffffffffffffffff168373ffffffffffffffffffffffffffffffffffffffff1614156115cf576115ca81611831565b61160e565b8173ffffffffffffffffffffffffffffffffffffffff168373ffffffffffffffffffffffffffffffffffffffff161461160d5761160c838261187a565b5b5b600073ffffffffffffffffffffffffffffffffffffffff168273ffffffffffffffffffffffffffffffffffffffff1614156116515761164c816119e7565b611690565b8273ffffffffffffffffffffffffffffffffffffffff168273ffffffffffffffffffffffffffffffffffffffff161461168f5761168e8282611b2a565b5b5b505050565b60006116b68473ffffffffffffffffffffffffffffffffffffffff16611ba9565b1561181f578373ffffffffffffffffffffffffffffffffffffffff1663150b7a026116df610ed6565b8786866040518563ffffffff1660e01b8152600401611701949392919061252c565b602060405180830381600087803b15801561171b57600080fd5b505af192505050801561174c57506040513d601f19601f820116820180604052508101906117499190611e5d565b60015b6117cf573d806000811461177c576040519150601f19603f3d011682016040523d82523d6000602084013e611781565b606091505b506000815114156117c7576040517f08c379a00000000000000000000000000000000000000000000000000000000081526004016117be906125d5565b60405180910390fd5b805181602001fd5b63150b7a0260e01b7bffffffffffffffffffffffffffffffffffffffffffffffffffffffff1916817bffffffffffffffffffffffffffffffffffffffffffffffffffffffff191614915050611824565b600190505b949350505050565b505050565b6008805490506009600083815260200190815260200160002081905550600881908060018154018082558091505060019003906000526020600020016000909190919091505550565b60006001611887846108fa565b61189191906128bb565b9050600060076000848152602001908152602001600020549050818114611976576000600660008673ffffffffffffffffffffffffffffffffffffffff1673ffffffffffffffffffffffffffffffffffffffff168152602001908152602001600020600084815260200190815260200160002054905080600660008773ffffffffffffffffffffffffffffffffffffffff1673ffffffffffffffffffffffffffffffffffffffff168152602001908152602001600020600084815260200190815260200160002081905550816007600083815260200190815260200160002081905550505b6007600084815260200190815260200160002060009055600660008573ffffffffffffffffffffffffffffffffffffffff1673ffffffffffffffffffffffffffffffffffffffff16815260200190815260200160002060008381526020019081526020016000206000905550505050565b600060016008805490506119fb91906128bb565b9050600060096000848152602001908152602001600020549050600060088381548110611a51577f4e487b7100000000000000000000000000000000000000000000000000000000600052603260045260246000fd5b906000526020600020015490508060088381548110611a99577f4e487b7100000000000000000000000000000000000000000000000000000000600052603260045260246000fd5b906000526020600020018190555081600960008381526020019081526020016000208190555060096000858152602001908152602001600020600090556008805480611b0e577f4e487b7100000000000000000000000000000000000000000000000000000000600052603160045260246000fd5b6001900381819060005260206000200160009055905550505050565b6000611b35836108fa565b905081600660008573ffffffffffffffffffffffffffffffffffffffff1673ffffffffffffffffffffffffffffffffffffffff168152602001908152602001600020600083815260200190815260200160002081905550806007600084815260200190815260200160002081905550505050565b600080823b905060008111915050919050565b6000611bcf611bca846127c1565b612790565b905082815260208101848484011115611be757600080fd5b611bf2848285612963565b509392505050565b600081359050611c0981612b1e565b92915050565b600081359050611c1e81612b35565b92915050565b600081359050611c3381612b4c565b92915050565b600081519050611c4881612b4c565b92915050565b600082601f830112611c5f57600080fd5b8135611c6f848260208601611bbc565b91505092915050565b600081359050611c8781612b63565b92915050565b600060208284031215611c9f57600080fd5b6000611cad84828501611bfa565b91505092915050565b60008060408385031215611cc957600080fd5b6000611cd785828601611bfa565b9250506020611ce885828601611bfa565b9150509250929050565b600080600060608486031215611d0757600080fd5b6000611d1586828701611bfa565b9350506020611d2686828701611bfa565b9250506040611d3786828701611c78565b9150509250925092565b60008060008060808587031215611d5757600080fd5b6000611d6587828801611bfa565b9450506020611d7687828801611bfa565b9350506040611d8787828801611c78565b925050606085013567ffffffffffffffff811115611da457600080fd5b611db087828801611c4e565b91505092959194509250565b60008060408385031215611dcf57600080fd5b6000611ddd85828601611bfa565b9250506020611dee85828601611c0f565b9150509250929050565b60008060408385031215611e0b57600080fd5b6000611e1985828601611bfa565b9250506020611e2a85828601611c78565b9150509250929050565b600060208284031215611e4657600080fd5b6000611e5484828501611c24565b91505092915050565b600060208284031215611e6f57600080fd5b6000611e7d84828501611c39565b91505092915050565b600060208284031215611e9857600080fd5b6000611ea684828501611c78565b91505092915050565b611eb8816128ef565b82525050565b611ec781612901565b82525050565b6000611ed8826127f1565b611ee28185612807565b9350611ef2818560208601612972565b611efb81612b0d565b840191505092915050565b6000611f11826127fc565b611f1b8185612818565b9350611f2b818560208601612972565b611f3481612b0d565b840191505092915050565b6000611f4a826127fc565b611f548185612829565b9350611f64818560208601612972565b80840191505092915050565b6000611f7d602b83612818565b91507f455243373231456e756d657261626c653a206f776e657220696e646578206f7560008301527f74206f6620626f756e64730000000000000000000000000000000000000000006020830152604082019050919050565b6000611fe3603283612818565b91507f4552433732313a207472616e7366657220746f206e6f6e20455243373231526560008301527f63656976657220696d706c656d656e74657200000000000000000000000000006020830152604082019050919050565b6000612049602483612818565b91507f4552433732313a207472616e7366657220746f20746865207a65726f2061646460008301527f72657373000000000000000000000000000000000000000000000000000000006020830152604082019050919050565b60006120af601983612818565b91507f4552433732313a20617070726f766520746f2063616c6c6572000000000000006000830152602082019050919050565b60006120ef602c83612818565b91507f4552433732313a206f70657261746f7220717565727920666f72206e6f6e657860008301527f697374656e7420746f6b656e00000000000000000000000000000000000000006020830152604082019050919050565b6000612155603883612818565b91507f4552433732313a20617070726f76652063616c6c6572206973206e6f74206f7760008301527f6e6572206e6f7220617070726f76656420666f7220616c6c00000000000000006020830152604082019050919050565b60006121bb602a83612818565b91507f4552433732313a2062616c616e636520717565727920666f7220746865207a6560008301527f726f2061646472657373000000000000000000000000000000000000000000006020830152604082019050919050565b6000612221602983612818565b91507f4552433732313a206f776e657220717565727920666f72206e6f6e657869737460008301527f656e7420746f6b656e00000000000000000000000000000000000000000000006020830152604082019050919050565b6000612287602c83612818565b91507f4552433732313a20617070726f76656420717565727920666f72206e6f6e657860008301527f697374656e7420746f6b656e00000000000000000000000000000000000000006020830152604082019050919050565b60006122ed602983612818565b91507f4552433732313a207472616e73666572206f6620746f6b656e2074686174206960008301527f73206e6f74206f776e00000000000000000000000000000000000000000000006020830152604082019050919050565b6000612353602f83612818565b91507f4552433732314d657461646174613a2055524920717565727920666f72206e6f60008301527f6e6578697374656e7420746f6b656e00000000000000000000000000000000006020830152604082019050919050565b60006123b9602183612818565b91507f4552433732313a20617070726f76616c20746f2063757272656e74206f776e6560008301527f72000000000000000000000000000000000000000000000000000000000000006020830152604082019050919050565b600061241f603183612818565b91507f4552433732313a207472616e736665722063616c6c6572206973206e6f74206f60008301527f776e6572206e6f7220617070726f7665640000000000000000000000000000006020830152604082019050919050565b6000612485602c83612818565b91507f455243373231456e756d657261626c653a20676c6f62616c20696e646578206f60008301527f7574206f6620626f756e647300000000000000000000000000000000000000006020830152604082019050919050565b6124e781612959565b82525050565b60006124f98285611f3f565b91506125058284611f3f565b91508190509392505050565b60006020820190506125266000830184611eaf565b92915050565b60006080820190506125416000830187611eaf565b61254e6020830186611eaf565b61255b60408301856124de565b818103606083015261256d8184611ecd565b905095945050505050565b600060208201905061258d6000830184611ebe565b92915050565b600060208201905081810360008301526125ad8184611f06565b905092915050565b600060208201905081810360008301526125ce81611f70565b9050919050565b600060208201905081810360008301526125ee81611fd6565b9050919050565b6000602082019050818103600083015261260e8161203c565b9050919050565b6000602082019050818103600083015261262e816120a2565b9050919050565b6000602082019050818103600083015261264e816120e2565b9050919050565b6000602082019050818103600083015261266e81612148565b9050919050565b6000602082019050818103600083015261268e816121ae565b9050919050565b600060208201905081810360008301526126ae81612214565b9050919050565b600060208201905081810360008301526126ce8161227a565b9050919050565b600060208201905081810360008301526126ee816122e0565b9050919050565b6000602082019050818103600083015261270e81612346565b9050919050565b6000602082019050818103600083015261272e816123ac565b9050919050565b6000602082019050818103600083015261274e81612412565b9050919050565b6000602082019050818103600083015261276e81612478565b9050919050565b600060208201905061278a60008301846124de565b92915050565b6000604051905081810181811067ffffffffffffffff821117156127b7576127b6612ade565b5b8060405250919050565b600067ffffffffffffffff8211156127dc576127db612ade565b5b601f19601f8301169050602081019050919050565b600081519050919050565b600081519050919050565b600082825260208201905092915050565b600082825260208201905092915050565b600081905092915050565b600061283f82612959565b915061284a83612959565b9250827fffffffffffffffffffffffffffffffffffffffffffffffffffffffffffffffff0382111561287f5761287e612a51565b5b828201905092915050565b600061289582612959565b91506128a083612959565b9250826128b0576128af612a80565b5b828204905092915050565b60006128c682612959565b91506128d183612959565b9250828210156128e4576128e3612a51565b5b828203905092915050565b60006128fa82612939565b9050919050565b60008115159050919050565b60007fffffffff0000000000000000000000000000000000000000000000000000000082169050919050565b600073ffffffffffffffffffffffffffffffffffffffff82169050919050565b6000819050919050565b82818337600083830152505050565b60005b83811015612990578082015181840152602081019050612975565b8381111561299f576000848401525b50505050565b600060028204905060018216806129bd57607f821691505b602082108114156129d1576129d0612aaf565b5b50919050565b60006129e282612959565b91507fffffffffffffffffffffffffffffffffffffffffffffffffffffffffffffffff821415612a1557612a14612a51565b5b600182019050919050565b6000612a2b82612959565b9150612a3683612959565b925082612a4657612a45612a80565b5b828206905092915050565b7f4e487b7100000000000000000000000000000000000000000000000000000000600052601160045260246000fd5b7f4e487b7100000000000000000000000000000000000000000000000000000000600052601260045260246000fd5b7f4e487b7100000000000000000000000000000000000000000000000000000000600052602260045260246000fd5b7f4e487b7100000000000000000000000000000000000000000000000000000000600052604160045260246000fd5b6000601f19601f8301169050919050565b612b27816128ef565b8114612b3257600080fd5b50565b612b3e81612901565b8114612b4957600080fd5b50565b612b558161290d565b8114612b6057600080fd5b50565b612b6c81612959565b8114612b7757600080fd5b5056fea2646970667358221220c7f08f3810eedd30bf89147eda30fe59dfe8c5f3369b16fff497fd720059a4d864736f6c63430008000033",
  "immutableReferences": {},
  "source": "// SPDX-License-Identifier: MIT\npragma solidity ^0.8.0;\n\nimport \"@openzeppelin/contracts/token/ERC721/ERC721.sol\";\nimport \"@openzeppelin/contracts/token/ERC721/extensions/ERC721Enumerable.sol\";\n\ncontract NVM is ERC721Enumerable {\n    address public _administrator;\n     constructor() ERC721('The NFT VendingMachine', 'TNVM') {\n         _administrator = msg.sender;\n    }\n\n    function createItem(address to) public returns (uint256){\n\n    }\n\n    function _baseURI() internal override pure returns (string memory){\n        return 'http://localhost:123/';\n    }\n}",
  "sourcePath": "/Users/oussamahamdaoui/Documents/TNVM/contracts/NVM.sol",
  "compiler": {
    "name": "solc",
    "version": "0.8.0+commit.c7dfd78e.Emscripten.clang"
  },
  "schemaVersion": "3.3.3",
  "updatedAt": "2021-07-15T15:27:10.784Z",
  "devdoc": {
    "kind": "dev",
    "methods": {
      "approve(address,uint256)": {
        "details": "See {IERC721-approve}."
      },
      "balanceOf(address)": {
        "details": "See {IERC721-balanceOf}."
      },
      "getApproved(uint256)": {
        "details": "See {IERC721-getApproved}."
      },
      "isApprovedForAll(address,address)": {
        "details": "See {IERC721-isApprovedForAll}."
      },
      "name()": {
        "details": "See {IERC721Metadata-name}."
      },
      "ownerOf(uint256)": {
        "details": "See {IERC721-ownerOf}."
      },
      "safeTransferFrom(address,address,uint256)": {
        "details": "See {IERC721-safeTransferFrom}."
      },
      "safeTransferFrom(address,address,uint256,bytes)": {
        "details": "See {IERC721-safeTransferFrom}."
      },
      "setApprovalForAll(address,bool)": {
        "details": "See {IERC721-setApprovalForAll}."
      },
      "supportsInterface(bytes4)": {
        "details": "See {IERC165-supportsInterface}."
      },
      "symbol()": {
        "details": "See {IERC721Metadata-symbol}."
      },
      "tokenByIndex(uint256)": {
        "details": "See {IERC721Enumerable-tokenByIndex}."
      },
      "tokenOfOwnerByIndex(address,uint256)": {
        "details": "See {IERC721Enumerable-tokenOfOwnerByIndex}."
      },
      "tokenURI(uint256)": {
        "details": "See {IERC721Metadata-tokenURI}."
      },
      "totalSupply()": {
        "details": "See {IERC721Enumerable-totalSupply}."
      },
      "transferFrom(address,address,uint256)": {
        "details": "See {IERC721-transferFrom}."
      }
    },
    "version": 1
  },
  "userdoc": {
    "kind": "user",
    "methods": {},
    "version": 1
  }
}